2         :8=FIX.4.2|9=0138|35=D|49=test|56=cyh|34=2|52=20120529-02:03:42.467|11=528-1|40=2|54=1|21=1|55=600036|1=A123456789|109=12345678|207=XSHG|38=1200|44=12.4500|10=200|129       :8=FIX.4.2|9=0140|35=D|49=test|56=cyh|34=129|52=20120529-03:08:48.812|11=528-2|40=2|54=1|21=1|55=600036|1=A123456789|109=12345678|207=XSHG|38=1200|44=12.4500|10=050|526       :8=FIX.4.2|9=0140|35=D|49=test|56=cyh|34=526|52=20120529-06:33:07.379|11=528-3|40=2|54=1|21=1|55=600036|1=A123456789|109=12345678|207=XSHG|38=1200|44=12.4500|10=056|527       :8=FIX.4.2|9=0140|35=D|49=test|56=cyh|34=527|52=20120529-06:33:25.380|11=528-4|40=2|54=1|21=1|55=600036|1=A123456789|109=12345678|207=XSHG|38=1200|44=12.4500|10=050|528       :8=FIX.4.2|9=0140|35=D|49=test|56=cyh|34=528|52=20120529-06:33:30.380|11=528-5|40=2|54=1|21=1|55=600036|1=A123456789|109=12345678|207=XSHG|38=1200|44=12.4500|10=048|529       :8=FIX.4.2|9=0140|35=D|49=test|56=cyh|34=529|52=20120529-06:33:31.380|11=528-6|40=2|54=1|21=1|55=600036|1=A123456789|109=12345678|207=XSHG|38=1200|44=12.4500|10=051|530       :8=FIX.4.2|9=0140|35=D|49=test|56=cyh|34=530|52=20120529-06:33:32.380|11=528-7|40=2|54=1|21=1|55=600036|1=A123456789|109=12345678|207=XSHG|38=1200|44=12.4500|10=045|531       :8=FIX.4.2|9=0140|35=D|49=test|56=cyh|34=531|52=20120529-06:33:33.380|11=528-8|40=2|54=1|21=1|55=600036|1=A123456789|109=12345678|207=XSHG|38=1200|44=12.4500|10=048|532       :8=FIX.4.2|9=0140|35=D|49=test|56=cyh|34=532|52=20120529-06:33:34.380|11=528-9|40=2|54=1|21=1|55=600036|1=A123456789|109=12345678|207=XSHG|38=1200|44=12.4500|10=051|533       :8=FIX.4.2|9=0141|35=D|49=test|56=cyh|34=533|52=20120529-06:33:35.380|11=528-10|40=2|54=1|21=1|55=600036|1=A123456789|109=12345678|207=XSHG|38=1200|44=12.4500|10=094|534       :8=FIX.4.2|9=0141|35=D|49=test|56=cyh|34=534|52=20120529-06:33:36.380|11=528-11|40=2|54=1|21=1|55=600036|1=A123456789|109=12345678|207=XSHG|38=1200|44=12.4500|10=097|535       :8=FIX.4.2|9=0141|35=D|49=test|56=cyh|34=535|52=20120529-06:33:37.380|11=528-12|40=2|54=1|21=1|55=600036|1=A123456789|109=12345678|207=XSHG|38=1200|44=12.4500|10=100|536       :8=FIX.4.2|9=0141|35=D|49=test|56=cyh|34=536|52=20120529-06:33:49.380|11=528-13|40=2|54=1|21=1|55=600036|1=A123456789|109=12345678|207=XSHG|38=1200|44=12.4500|10=105|537       :8=FIX.4.2|9=0141|35=D|49=test|56=cyh|34=537|52=20120529-06:33:50.380|11=528-14|40=2|54=1|21=1|55=600036|1=A123456789|109=12345678|207=XSHG|38=1200|44=12.4500|10=099|538       :8=FIX.4.2|9=0141|35=D|49=test|56=cyh|34=538|52=20120529-06:33:51.380|11=528-15|40=2|54=1|21=1|55=600036|1=A123456789|109=12345678|207=XSHG|38=1200|44=12.4500|10=102|539       :8=FIX.4.2|9=0141|35=D|49=test|56=cyh|34=539|52=20120529-06:33:52.380|11=528-16|40=2|54=1|21=1|55=600036|1=A123456789|109=12345678|207=XSHG|38=1200|44=12.4500|10=105|540       :8=FIX.4.2|9=0141|35=D|49=test|56=cyh|34=540|52=20120529-06:33:53.380|11=528-17|40=2|54=1|21=1|55=600036|1=A123456789|109=12345678|207=XSHG|38=1200|44=12.4500|10=099|541       :8=FIX.4.2|9=0141|35=D|49=test|56=cyh|34=541|52=20120529-06:33:54.380|11=528-18|40=2|54=1|21=1|55=600036|1=A123456789|109=12345678|207=XSHG|38=1200|44=12.4500|10=102|542       :8=FIX.4.2|9=0141|35=D|49=test|56=cyh|34=542|52=20120529-06:33:55.380|11=528-19|40=2|54=1|21=1|55=600036|1=A123456789|109=12345678|207=XSHG|38=1200|44=12.4500|10=105|543       :8=FIX.4.2|9=0141|35=D|49=test|56=cyh|34=543|52=20120529-06:33:56.380|11=528-20|40=2|54=1|21=1|55=600036|1=A123456789|109=12345678|207=XSHG|38=1200|44=12.4500|10=099|544       :8=FIX.4.2|9=0141|35=D|49=test|56=cyh|34=544|52=20120529-06:33:57.380|11=528-21|40=2|54=1|21=1|55=600036|1=A123456789|109=12345678|207=XSHG|38=1200|44=12.4500|10=102|545       :8=FIX.4.2|9=0141|35=D|49=test|56=cyh|34=545|52=20120529-06:33:58.380|11=528-22|40=2|54=1|21=1|55=600036|1=A123456789|109=12345678|207=XSHG|38=1200|44=12.4500|10=105|546       :8=FIX.4.2|9=0141|35=D|49=test|56=cyh|34=546|52=20120529-06:33:59.380|11=528-23|40=2|54=1|21=1|55=600036|1=A123456789|109=12345678|207=XSHG|38=1200|44=12.4500|10=108|547       :8=FIX.4.2|9=0141|35=D|49=test|56=cyh|34=547|52=20120529-06:34:00.380|11=528-24|40=2|54=1|21=1|55=600036|1=A123456789|109=12345678|207=XSHG|38=1200|44=12.4500|10=097|548       :8=FIX.4.2|9=0141|35=D|49=test|56=cyh|34=548|52=20120529-06:34:01.380|11=528-25|40=2|54=1|21=1|55=600036|1=A123456789|109=12345678|207=XSHG|38=1200|44=12.4500|10=100|549       :8=FIX.4.2|9=0141|35=D|49=test|56=cyh|34=549|52=20120529-06:34:02.380|11=528-26|40=2|54=1|21=1|55=600036|1=A123456789|109=12345678|207=XSHG|38=1200|44=12.4500|10=103|550       :8=FIX.4.2|9=0141|35=D|49=test|56=cyh|34=550|52=20120529-06:34:03.380|11=528-27|40=2|54=1|21=1|55=600036|1=A123456789|109=12345678|207=XSHG|38=1200|44=12.4500|10=097|551       :8=FIX.4.2|9=0141|35=D|49=test|56=cyh|34=551|52=20120529-06:34:04.380|11=528-28|40=2|54=1|21=1|55=600036|1=A123456789|109=12345678|207=XSHG|38=1200|44=12.4500|10=100|566       :8=FIX.4.2|9=0141|35=D|49=test|56=cyh|34=566|52=20120529-06:41:31.547|11=528-29|40=2|54=1|21=1|55=600036|1=A123456789|109=12345678|207=XSHG|38=1200|44=12.4500|10=110|567       :8=FIX.4.2|9=0141|35=D|49=test|56=cyh|34=567|52=20120529-06:41:31.547|11=528-30|40=2|54=1|21=1|55=600036|1=A123456789|109=12345678|207=XSHG|38=1200|44=12.4500|10=103|568       :8=FIX.4.2|9=0141|35=D|49=test|56=cyh|34=568|52=20120529-06:41:31.557|11=528-31|40=2|54=1|21=1|55=600036|1=A123456789|109=12345678|207=XSHG|38=1200|44=12.4500|10=106|569       :8=FIX.4.2|9=0141|35=D|49=test|56=cyh|34=569|52=20120529-06:41:31.557|11=528-32|40=2|54=1|21=1|55=600036|1=A123456789|109=12345678|207=XSHG|38=1200|44=12.4500|10=108|570       :8=FIX.4.2|9=0141|35=D|49=test|56=cyh|34=570|52=20120529-06:41:31.557|11=528-33|40=2|54=1|21=1|55=600036|1=A123456789|109=12345678|207=XSHG|38=1200|44=12.4500|10=101|571       :8=FIX.4.2|9=0141|35=D|49=test|56=cyh|34=571|52=20120529-06:41:31.567|11=528-34|40=2|54=1|21=1|55=600036|1=A123456789|109=12345678|207=XSHG|38=1200|44=12.4500|10=104|572       :8=FIX.4.2|9=0141|35=D|49=test|56=cyh|34=572|52=20120529-06:41:31.567|11=528-35|40=2|54=1|21=1|55=600036|1=A123456789|109=12345678|207=XSHG|38=1200|44=12.4500|10=106|573       :8=FIX.4.2|9=0141|35=D|49=test|56=cyh|34=573|52=20120529-06:41:31.567|11=528-36|40=2|54=1|21=1|55=600036|1=A123456789|109=12345678|207=XSHG|38=1200|44=12.4500|10=108|574       :8=FIX.4.2|9=0141|35=D|49=test|56=cyh|34=574|52=20120529-06:41:31.567|11=528-37|40=2|54=1|21=1|55=600036|1=A123456789|109=12345678|207=XSHG|38=1200|44=12.4500|10=110|575       :8=FIX.4.2|9=0141|35=D|49=test|56=cyh|34=575|52=20120529-06:41:31.577|11=528-38|40=2|54=1|21=1|55=600036|1=A123456789|109=12345678|207=XSHG|38=1200|44=12.4500|10=113|576       :8=FIX.4.2|9=0141|35=D|49=test|56=cyh|34=576|52=20120529-06:41:31.577|11=528-39|40=2|54=1|21=1|55=600036|1=A123456789|109=12345678|207=XSHG|38=1200|44=12.4500|10=115|577       :8=FIX.4.2|9=0141|35=D|49=test|56=cyh|34=577|52=20120529-06:41:31.577|11=528-40|40=2|54=1|21=1|55=600036|1=A123456789|109=12345678|207=XSHG|38=1200|44=12.4500|10=108|578       :8=FIX.4.2|9=0141|35=D|49=test|56=cyh|34=578|52=20120529-06:41:31.577|11=528-41|40=2|54=1|21=1|55=600036|1=A123456789|109=12345678|207=XSHG|38=1200|44=12.4500|10=110|579       :8=FIX.4.2|9=0141|35=D|49=test|56=cyh|34=579|52=20120529-06:41:31.577|11=528-42|40=2|54=1|21=1|55=600036|1=A123456789|109=12345678|207=XSHG|38=1200|44=12.4500|10=112|580       :8=FIX.4.2|9=0141|35=D|49=test|56=cyh|34=580|52=20120529-06:41:31.577|11=528-43|40=2|54=1|21=1|55=600036|1=A123456789|109=12345678|207=XSHG|38=1200|44=12.4500|10=105|581       :8=FIX.4.2|9=0141|35=D|49=test|56=cyh|34=581|52=20120529-06:41:31.577|11=528-44|40=2|54=1|21=1|55=600036|1=A123456789|109=12345678|207=XSHG|38=1200|44=12.4500|10=107|582       :8=FIX.4.2|9=0141|35=D|49=test|56=cyh|34=582|52=20120529-06:41:31.577|11=528-45|40=2|54=1|21=1|55=600036|1=A123456789|109=12345678|207=XSHG|38=1200|44=12.4500|10=109|583       :8=FIX.4.2|9=0141|35=D|49=test|56=cyh|34=583|52=20120529-06:41:31.577|11=528-46|40=2|54=1|21=1|55=600036|1=A123456789|109=12345678|207=XSHG|38=1200|44=12.4500|10=111|584       :8=FIX.4.2|9=0141|35=D|49=test|56=cyh|34=584|52=20120529-06:41:31.577|11=528-47|40=2|54=1|21=1|55=600036|1=A123456789|109=12345678|207=XSHG|38=1200|44=12.4500|10=113|585       :8=FIX.4.2|9=0141|35=D|49=test|56=cyh|34=585|52=20120529-06:41:31.577|11=528-48|40=2|54=1|21=1|55=600036|1=A123456789|109=12345678|207=XSHG|38=1200|44=12.4500|10=115|586       :8=FIX.4.2|9=0141|35=D|49=test|56=cyh|34=586|52=20120529-06:41:31.577|11=528-49|40=2|54=1|21=1|55=600036|1=A123456789|109=12345678|207=XSHG|38=1200|44=12.4500|10=117|587       :8=FIX.4.2|9=0141|35=D|49=test|56=cyh|34=587|52=20120529-06:41:31.587|11=528-50|40=2|54=1|21=1|55=600036|1=A123456789|109=12345678|207=XSHG|38=1200|44=12.4500|10=111|588       :8=FIX.4.2|9=0141|35=D|49=test|56=cyh|34=588|52=20120529-06:41:31.587|11=528-51|40=2|54=1|21=1|55=600036|1=A123456789|109=12345678|207=XSHG|38=1200|44=12.4500|10=113|589       :8=FIX.4.2|9=0141|35=D|49=test|56=cyh|34=589|52=20120529-06:41:31.587|11=528-52|40=2|54=1|21=1|55=600036|1=A123456789|109=12345678|207=XSHG|38=1200|44=12.4500|10=115|590       :8=FIX.4.2|9=0141|35=D|49=test|56=cyh|34=590|52=20120529-06:41:31.587|11=528-53|40=2|54=1|21=1|55=600036|1=A123456789|109=12345678|207=XSHG|38=1200|44=12.4500|10=108|591       :8=FIX.4.2|9=0141|35=D|49=test|56=cyh|34=591|52=20120529-06:41:31.587|11=528-54|40=2|54=1|21=1|55=600036|1=A123456789|109=12345678|207=XSHG|38=1200|44=12.4500|10=110|592       :8=FIX.4.2|9=0141|35=D|49=test|56=cyh|34=592|52=20120529-06:41:31.587|11=528-55|40=2|54=1|21=1|55=600036|1=A123456789|109=12345678|207=XSHG|38=1200|44=12.4500|10=112|593       :8=FIX.4.2|9=0141|35=D|49=test|56=cyh|34=593|52=20120529-06:41:31.587|11=528-56|40=2|54=1|21=1|55=600036|1=A123456789|109=12345678|207=XSHG|38=1200|44=12.4500|10=114|594       :8=FIX.4.2|9=0141|35=D|49=test|56=cyh|34=594|52=20120529-06:41:31.587|11=528-57|40=2|54=1|21=1|55=600036|1=A123456789|109=12345678|207=XSHG|38=1200|44=12.4500|10=116|595       :8=FIX.4.2|9=0141|35=D|49=test|56=cyh|34=595|52=20120529-06:41:31.587|11=528-58|40=2|54=1|21=1|55=600036|1=A123456789|109=12345678|207=XSHG|38=1200|44=12.4500|10=118|596       :8=FIX.4.2|9=0141|35=D|49=test|56=cyh|34=596|52=20120529-06:41:31.587|11=528-59|40=2|54=1|21=1|55=600036|1=A123456789|109=12345678|207=XSHG|38=1200|44=12.4500|10=120|597       :8=FIX.4.2|9=0141|35=D|49=test|56=cyh|34=597|52=20120529-06:41:31.587|11=528-60|40=2|54=1|21=1|55=600036|1=A123456789|109=12345678|207=XSHG|38=1200|44=12.4500|10=113|598       :8=FIX.4.2|9=0141|35=D|49=test|56=cyh|34=598|52=20120529-06:41:31.587|11=528-61|40=2|54=1|21=1|55=600036|1=A123456789|109=12345678|207=XSHG|38=1200|44=12.4500|10=115|599       :8=FIX.4.2|9=0141|35=D|49=test|56=cyh|34=599|52=20120529-06:41:31.587|11=528-62|40=2|54=1|21=1|55=600036|1=A123456789|109=12345678|207=XSHG|38=1200|44=12.4500|10=117|600       :8=FIX.4.2|9=0141|35=D|49=test|56=cyh|34=600|52=20120529-06:41:31.587|11=528-63|40=2|54=1|21=1|55=600036|1=A123456789|109=12345678|207=XSHG|38=1200|44=12.4500|10=101|601       :8=FIX.4.2|9=0141|35=D|49=test|56=cyh|34=601|52=20120529-06:41:31.587|11=528-64|40=2|54=1|21=1|55=600036|1=A123456789|109=12345678|207=XSHG|38=1200|44=12.4500|10=103|602       :8=FIX.4.2|9=0141|35=D|49=test|56=cyh|34=602|52=20120529-06:41:31.587|11=528-65|40=2|54=1|21=1|55=600036|1=A123456789|109=12345678|207=XSHG|38=1200|44=12.4500|10=105|603       :8=FIX.4.2|9=0141|35=D|49=test|56=cyh|34=603|52=20120529-06:41:31.587|11=528-66|40=2|54=1|21=1|55=600036|1=A123456789|109=12345678|207=XSHG|38=1200|44=12.4500|10=107|604       :8=FIX.4.2|9=0141|35=D|49=test|56=cyh|34=604|52=20120529-06:41:31.597|11=528-67|40=2|54=1|21=1|55=600036|1=A123456789|109=12345678|207=XSHG|38=1200|44=12.4500|10=110|605       :8=FIX.4.2|9=0141|35=D|49=test|56=cyh|34=605|52=20120529-06:41:31.597|11=528-68|40=2|54=1|21=1|55=600036|1=A123456789|109=12345678|207=XSHG|38=1200|44=12.4500|10=112|606       :8=FIX.4.2|9=0141|35=D|49=test|56=cyh|34=606|52=20120529-06:41:31.597|11=528-69|40=2|54=1|21=1|55=600036|1=A123456789|109=12345678|207=XSHG|38=1200|44=12.4500|10=114|607       :8=FIX.4.2|9=0141|35=D|49=test|56=cyh|34=607|52=20120529-06:41:31.597|11=528-70|40=2|54=1|21=1|55=600036|1=A123456789|109=12345678|207=XSHG|38=1200|44=12.4500|10=107|608       :8=FIX.4.2|9=0141|35=D|49=test|56=cyh|34=608|52=20120529-06:41:31.597|11=528-71|40=2|54=1|21=1|55=600036|1=A123456789|109=12345678|207=XSHG|38=1200|44=12.4500|10=109|609       :8=FIX.4.2|9=0141|35=D|49=test|56=cyh|34=609|52=20120529-06:41:31.597|11=528-72|40=2|54=1|21=1|55=600036|1=A123456789|109=12345678|207=XSHG|38=1200|44=12.4500|10=111|610       :8=FIX.4.2|9=0141|35=D|49=test|56=cyh|34=610|52=20120529-06:41:31.597|11=528-73|40=2|54=1|21=1|55=600036|1=A123456789|109=12345678|207=XSHG|38=1200|44=12.4500|10=104|611       :8=FIX.4.2|9=0141|35=D|49=test|56=cyh|34=611|52=20120529-06:41:31.597|11=528-74|40=2|54=1|21=1|55=600036|1=A123456789|109=12345678|207=XSHG|38=1200|44=12.4500|10=106|612       :8=FIX.4.2|9=0141|35=D|49=test|56=cyh|34=612|52=20120529-06:41:31.597|11=528-75|40=2|54=1|21=1|55=600036|1=A123456789|109=12345678|207=XSHG|38=1200|44=12.4500|10=108|613       :8=FIX.4.2|9=0141|35=D|49=test|56=cyh|34=613|52=20120529-06:41:31.597|11=528-76|40=2|54=1|21=1|55=600036|1=A123456789|109=12345678|207=XSHG|38=1200|44=12.4500|10=110|614       :8=FIX.4.2|9=0141|35=D|49=test|56=cyh|34=614|52=20120529-06:41:31.597|11=528-77|40=2|54=1|21=1|55=600036|1=A123456789|109=12345678|207=XSHG|38=1200|44=12.4500|10=112|615       :8=FIX.4.2|9=0141|35=D|49=test|56=cyh|34=615|52=20120529-06:41:31.597|11=528-78|40=2|54=1|21=1|55=600036|1=A123456789|109=12345678|207=XSHG|38=1200|44=12.4500|10=114|616       :8=FIX.4.2|9=0141|35=D|49=test|56=cyh|34=616|52=20120529-06:41:31.597|11=528-79|40=2|54=1|21=1|55=600036|1=A123456789|109=12345678|207=XSHG|38=1200|44=12.4500|10=116|617       :8=FIX.4.2|9=0141|35=D|49=test|56=cyh|34=617|52=20120529-06:41:31.597|11=528-80|40=2|54=1|21=1|55=600036|1=A123456789|109=12345678|207=XSHG|38=1200|44=12.4500|10=109|618       :8=FIX.4.2|9=0141|35=D|49=test|56=cyh|34=618|52=20120529-06:41:31.597|11=528-81|40=2|54=1|21=1|55=600036|1=A123456789|109=12345678|207=XSHG|38=1200|44=12.4500|10=111|619       :8=FIX.4.2|9=0141|35=D|49=test|56=cyh|34=619|52=20120529-06:41:31.607|11=528-82|40=2|54=1|21=1|55=600036|1=A123456789|109=12345678|207=XSHG|38=1200|44=12.4500|10=105|620       :8=FIX.4.2|9=0141|35=D|49=test|56=cyh|34=620|52=20120529-06:41:31.607|11=528-83|40=2|54=1|21=1|55=600036|1=A123456789|109=12345678|207=XSHG|38=1200|44=12.4500|10=098|621       :8=FIX.4.2|9=0141|35=D|49=test|56=cyh|34=621|52=20120529-06:41:31.607|11=528-84|40=2|54=1|21=1|55=600036|1=A123456789|109=12345678|207=XSHG|38=1200|44=12.4500|10=100|622       :8=FIX.4.2|9=0141|35=D|49=test|56=cyh|34=622|52=20120529-06:41:31.607|11=528-85|40=2|54=1|21=1|55=600036|1=A123456789|109=12345678|207=XSHG|38=1200|44=12.4500|10=102|623       :8=FIX.4.2|9=0141|35=D|49=test|56=cyh|34=623|52=20120529-06:41:31.607|11=528-86|40=2|54=1|21=1|55=600036|1=A123456789|109=12345678|207=XSHG|38=1200|44=12.4500|10=104|624       :8=FIX.4.2|9=0141|35=D|49=test|56=cyh|34=624|52=20120529-06:41:31.607|11=528-87|40=2|54=1|21=1|55=600036|1=A123456789|109=12345678|207=XSHG|38=1200|44=12.4500|10=106|625       :8=FIX.4.2|9=0141|35=D|49=test|56=cyh|34=625|52=20120529-06:41:31.607|11=528-88|40=2|54=1|21=1|55=600036|1=A123456789|109=12345678|207=XSHG|38=1200|44=12.4500|10=108|626       :8=FIX.4.2|9=0141|35=D|49=test|56=cyh|34=626|52=20120529-06:41:31.607|11=528-89|40=2|54=1|21=1|55=600036|1=A123456789|109=12345678|207=XSHG|38=1200|44=12.4500|10=110|627       :8=FIX.4.2|9=0141|35=D|49=test|56=cyh|34=627|52=20120529-06:41:31.607|11=528-90|40=2|54=1|21=1|55=600036|1=A123456789|109=12345678|207=XSHG|38=1200|44=12.4500|10=103|628       :8=FIX.4.2|9=0141|35=D|49=test|56=cyh|34=628|52=20120529-06:41:31.607|11=528-91|40=2|54=1|21=1|55=600036|1=A123456789|109=12345678|207=XSHG|38=1200|44=12.4500|10=105|629       :8=FIX.4.2|9=0141|35=D|49=test|56=cyh|34=629|52=20120529-06:41:31.607|11=528-92|40=2|54=1|21=1|55=600036|1=A123456789|109=12345678|207=XSHG|38=1200|44=12.4500|10=107|630       :8=FIX.4.2|9=0141|35=D|49=test|56=cyh|34=630|52=20120529-06:41:31.607|11=528-93|40=2|54=1|21=1|55=600036|1=A123456789|109=12345678|207=XSHG|38=1200|44=12.4500|10=100|631       :8=FIX.4.2|9=0141|35=D|49=test|56=cyh|34=631|52=20120529-06:41:31.607|11=528-94|40=2|54=1|21=1|55=600036|1=A123456789|109=12345678|207=XSHG|38=1200|44=12.4500|10=102|632       :8=FIX.4.2|9=0141|35=D|49=test|56=cyh|34=632|52=20120529-06:41:31.607|11=528-95|40=2|54=1|21=1|55=600036|1=A123456789|109=12345678|207=XSHG|38=1200|44=12.4500|10=104|633       :8=FIX.4.2|9=0141|35=D|49=test|56=cyh|34=633|52=20120529-06:41:31.607|11=528-96|40=2|54=1|21=1|55=600036|1=A123456789|109=12345678|207=XSHG|38=1200|44=12.4500|10=106|634       :8=FIX.4.2|9=0141|35=D|49=test|56=cyh|34=634|52=20120529-06:41:31.607|11=528-97|40=2|54=1|21=1|55=600036|1=A123456789|109=12345678|207=XSHG|38=1200|44=12.4500|10=108|635       :8=FIX.4.2|9=0141|35=D|49=test|56=cyh|34=635|52=20120529-06:41:31.607|11=528-98|40=2|54=1|21=1|55=600036|1=A123456789|109=12345678|207=XSHG|38=1200|44=12.4500|10=110|636       :8=FIX.4.2|9=0141|35=D|49=test|56=cyh|34=636|52=20120529-06:41:31.607|11=528-99|40=2|54=1|21=1|55=600036|1=A123456789|109=12345678|207=XSHG|38=1200|44=12.4500|10=112|637       :8=FIX.4.2|9=0142|35=D|49=test|56=cyh|34=637|52=20120529-06:41:31.607|11=528-100|40=2|54=1|21=1|55=600036|1=A123456789|109=12345678|207=XSHG|38=1200|44=12.4500|10=145|638       :8=FIX.4.2|9=0142|35=D|49=test|56=cyh|34=638|52=20120529-06:41:31.607|11=528-101|40=2|54=1|21=1|55=600036|1=A123456789|109=12345678|207=XSHG|38=1200|44=12.4500|10=147|639       :8=FIX.4.2|9=0142|35=D|49=test|56=cyh|34=639|52=20120529-06:41:31.617|11=528-102|40=2|54=1|21=1|55=600036|1=A123456789|109=12345678|207=XSHG|38=1200|44=12.4500|10=150|640       :8=FIX.4.2|9=0142|35=D|49=test|56=cyh|34=640|52=20120529-06:41:31.617|11=528-103|40=2|54=1|21=1|55=600036|1=A123456789|109=12345678|207=XSHG|38=1200|44=12.4500|10=143|641       :8=FIX.4.2|9=0142|35=D|49=test|56=cyh|34=641|52=20120529-06:41:31.617|11=528-104|40=2|54=1|21=1|55=600036|1=A123456789|109=12345678|207=XSHG|38=1200|44=12.4500|10=145|642       :8=FIX.4.2|9=0142|35=D|49=test|56=cyh|34=642|52=20120529-06:41:31.617|11=528-105|40=2|54=1|21=1|55=600036|1=A123456789|109=12345678|207=XSHG|38=1200|44=12.4500|10=147|643       :8=FIX.4.2|9=0142|35=D|49=test|56=cyh|34=643|52=20120529-06:41:31.617|11=528-106|40=2|54=1|21=1|55=600036|1=A123456789|109=12345678|207=XSHG|38=1200|44=12.4500|10=149|644       :8=FIX.4.2|9=0142|35=D|49=test|56=cyh|34=644|52=20120529-06:41:31.617|11=528-107|40=2|54=1|21=1|55=600036|1=A123456789|109=12345678|207=XSHG|38=1200|44=12.4500|10=151|645       :8=FIX.4.2|9=0142|35=D|49=test|56=cyh|34=645|52=20120529-06:41:31.617|11=528-108|40=2|54=1|21=1|55=600036|1=A123456789|109=12345678|207=XSHG|38=1200|44=12.4500|10=153|646       :8=FIX.4.2|9=0142|35=D|49=test|56=cyh|34=646|52=20120529-06:41:31.627|11=528-109|40=2|54=1|21=1|55=600036|1=A123456789|109=12345678|207=XSHG|38=1200|44=12.4500|10=156|647       :8=FIX.4.2|9=0142|35=D|49=test|56=cyh|34=647|52=20120529-06:41:31.627|11=528-110|40=2|54=1|21=1|55=600036|1=A123456789|109=12345678|207=XSHG|38=1200|44=12.4500|10=149|648       :8=FIX.4.2|9=0142|35=D|49=test|56=cyh|34=648|52=20120529-06:41:31.627|11=528-111|40=2|54=1|21=1|55=600036|1=A123456789|109=12345678|207=XSHG|38=1200|44=12.4500|10=151|649       :8=FIX.4.2|9=0142|35=D|49=test|56=cyh|34=649|52=20120529-06:41:31.627|11=528-112|40=2|54=1|21=1|55=600036|1=A123456789|109=12345678|207=XSHG|38=1200|44=12.4500|10=153|650       :8=FIX.4.2|9=0142|35=D|49=test|56=cyh|34=650|52=20120529-06:41:31.627|11=528-113|40=2|54=1|21=1|55=600036|1=A123456789|109=12345678|207=XSHG|38=1200|44=12.4500|10=146|651       :8=FIX.4.2|9=0142|35=D|49=test|56=cyh|34=651|52=20120529-06:41:31.627|11=528-114|40=2|54=1|21=1|55=600036|1=A123456789|109=12345678|207=XSHG|38=1200|44=12.4500|10=148|652       :8=FIX.4.2|9=0142|35=D|49=test|56=cyh|34=652|52=20120529-06:41:31.627|11=528-115|40=2|54=1|21=1|55=600036|1=A123456789|109=12345678|207=XSHG|38=1200|44=12.4500|10=150|653       :8=FIX.4.2|9=0142|35=D|49=test|56=cyh|34=653|52=20120529-06:41:31.627|11=528-116|40=2|54=1|21=1|55=600036|1=A123456789|109=12345678|207=XSHG|38=1200|44=12.4500|10=152|654       :8=FIX.4.2|9=0142|35=D|49=test|56=cyh|34=654|52=20120529-06:41:31.627|11=528-117|40=2|54=1|21=1|55=600036|1=A123456789|109=12345678|207=XSHG|38=1200|44=12.4500|10=154|655       :8=FIX.4.2|9=0142|35=D|49=test|56=cyh|34=655|52=20120529-06:41:31.627|11=528-118|40=2|54=1|21=1|55=600036|1=A123456789|109=12345678|207=XSHG|38=1200|44=12.4500|10=156|656       :8=FIX.4.2|9=0142|35=D|49=test|56=cyh|34=656|52=20120529-06:41:31.627|11=528-119|40=2|54=1|21=1|55=600036|1=A123456789|109=12345678|207=XSHG|38=1200|44=12.4500|10=158|657       :8=FIX.4.2|9=0142|35=D|49=test|56=cyh|34=657|52=20120529-06:41:31.627|11=528-120|40=2|54=1|21=1|55=600036|1=A123456789|109=12345678|207=XSHG|38=1200|44=12.4500|10=151|658       :8=FIX.4.2|9=0142|35=D|49=test|56=cyh|34=658|52=20120529-06:41:31.627|11=528-121|40=2|54=1|21=1|55=600036|1=A123456789|109=12345678|207=XSHG|38=1200|44=12.4500|10=153|659       :8=FIX.4.2|9=0142|35=D|49=test|56=cyh|34=659|52=20120529-06:41:31.627|11=528-122|40=2|54=1|21=1|55=600036|1=A123456789|109=12345678|207=XSHG|38=1200|44=12.4500|10=155|660       :8=FIX.4.2|9=0142|35=D|49=test|56=cyh|34=660|52=20120529-06:41:31.627|11=528-123|40=2|54=1|21=1|55=600036|1=A123456789|109=12345678|207=XSHG|38=1200|44=12.4500|10=148|661       :8=FIX.4.2|9=0142|35=D|49=test|56=cyh|34=661|52=20120529-06:41:31.627|11=528-124|40=2|54=1|21=1|55=600036|1=A123456789|109=12345678|207=XSHG|38=1200|44=12.4500|10=150|662       :8=FIX.4.2|9=0142|35=D|49=test|56=cyh|34=662|52=20120529-06:41:31.627|11=528-125|40=2|54=1|21=1|55=600036|1=A123456789|109=12345678|207=XSHG|38=1200|44=12.4500|10=152|663       :8=FIX.4.2|9=0142|35=D|49=test|56=cyh|34=663|52=20120529-06:41:31.627|11=528-126|40=2|54=1|21=1|55=600036|1=A123456789|109=12345678|207=XSHG|38=1200|44=12.4500|10=154|664       :8=FIX.4.2|9=0142|35=D|49=test|56=cyh|34=664|52=20120529-06:41:31.627|11=528-127|40=2|54=1|21=1|55=600036|1=A123456789|109=12345678|207=XSHG|38=1200|44=12.4500|10=156|665       :8=FIX.4.2|9=0142|35=D|49=test|56=cyh|34=665|52=20120529-06:41:31.627|11=528-128|40=2|54=1|21=1|55=600036|1=A123456789|109=12345678|207=XSHG|38=1200|44=12.4500|10=158|666       :8=FIX.4.2|9=0142|35=D|49=test|56=cyh|34=666|52=20120529-06:41:36.547|11=528-129|40=2|54=1|21=1|55=600036|1=A123456789|109=12345678|207=XSHG|38=1200|44=12.4500|10=166|667       :8=FIX.4.2|9=0142|35=D|49=test|56=cyh|34=667|52=20120529-06:41:36.547|11=528-130|40=2|54=1|21=1|55=600036|1=A123456789|109=12345678|207=XSHG|38=1200|44=12.4500|10=159|668       :8=FIX.4.2|9=0142|35=D|49=test|56=cyh|34=668|52=20120529-06:41:36.547|11=528-131|40=2|54=1|21=1|55=600036|1=A123456789|109=12345678|207=XSHG|38=1200|44=12.4500|10=161|669       :8=FIX.4.2|9=0142|35=D|49=test|56=cyh|34=669|52=20120529-06:41:36.547|11=528-132|40=2|54=1|21=1|55=600036|1=A123456789|109=12345678|207=XSHG|38=1200|44=12.4500|10=163|670       :8=FIX.4.2|9=0142|35=D|49=test|56=cyh|34=670|52=20120529-06:41:36.547|11=528-133|40=2|54=1|21=1|55=600036|1=A123456789|109=12345678|207=XSHG|38=1200|44=12.4500|10=156|671       :8=FIX.4.2|9=0142|35=D|49=test|56=cyh|34=671|52=20120529-06:41:36.547|11=528-134|40=2|54=1|21=1|55=600036|1=A123456789|109=12345678|207=XSHG|38=1200|44=12.4500|10=158|672       :8=FIX.4.2|9=0142|35=D|49=test|56=cyh|34=672|52=20120529-06:41:36.547|11=528-135|40=2|54=1|21=1|55=600036|1=A123456789|109=12345678|207=XSHG|38=1200|44=12.4500|10=160|673       :8=FIX.4.2|9=0142|35=D|49=test|56=cyh|34=673|52=20120529-06:41:36.547|11=528-136|40=2|54=1|21=1|55=600036|1=A123456789|109=12345678|207=XSHG|38=1200|44=12.4500|10=162|674       :8=FIX.4.2|9=0142|35=D|49=test|56=cyh|34=674|52=20120529-06:41:36.547|11=528-137|40=2|54=1|21=1|55=600036|1=A123456789|109=12345678|207=XSHG|38=1200|44=12.4500|10=164|675       :8=FIX.4.2|9=0142|35=D|49=test|56=cyh|34=675|52=20120529-06:41:36.557|11=528-138|40=2|54=1|21=1|55=600036|1=A123456789|109=12345678|207=XSHG|38=1200|44=12.4500|10=167|676       :8=FIX.4.2|9=0142|35=D|49=test|56=cyh|34=676|52=20120529-06:41:36.557|11=528-139|40=2|54=1|21=1|55=600036|1=A123456789|109=12345678|207=XSHG|38=1200|44=12.4500|10=169|677       :8=FIX.4.2|9=0142|35=D|49=test|56=cyh|34=677|52=20120529-06:41:36.557|11=528-140|40=2|54=1|21=1|55=600036|1=A123456789|109=12345678|207=XSHG|38=1200|44=12.4500|10=162|678       :8=FIX.4.2|9=0142|35=D|49=test|56=cyh|34=678|52=20120529-06:41:36.557|11=528-141|40=2|54=1|21=1|55=600036|1=A123456789|109=12345678|207=XSHG|38=1200|44=12.4500|10=164|679       :8=FIX.4.2|9=0142|35=D|49=test|56=cyh|34=679|52=20120529-06:41:36.557|11=528-142|40=2|54=1|21=1|55=600036|1=A123456789|109=12345678|207=XSHG|38=1200|44=12.4500|10=166|680       :8=FIX.4.2|9=0142|35=D|49=test|56=cyh|34=680|52=20120529-06:41:36.557|11=528-143|40=2|54=1|21=1|55=600036|1=A123456789|109=12345678|207=XSHG|38=1200|44=12.4500|10=159|681       :8=FIX.4.2|9=0142|35=D|49=test|56=cyh|34=681|52=20120529-06:41:36.557|11=528-144|40=2|54=1|21=1|55=600036|1=A123456789|109=12345678|207=XSHG|38=1200|44=12.4500|10=161|682       :8=FIX.4.2|9=0142|35=D|49=test|56=cyh|34=682|52=20120529-06:41:36.557|11=528-145|40=2|54=1|21=1|55=600036|1=A123456789|109=12345678|207=XSHG|38=1200|44=12.4500|10=163|683       :8=FIX.4.2|9=0142|35=D|49=test|56=cyh|34=683|52=20120529-06:41:36.557|11=528-146|40=2|54=1|21=1|55=600036|1=A123456789|109=12345678|207=XSHG|38=1200|44=12.4500|10=165|684       :8=FIX.4.2|9=0142|35=D|49=test|56=cyh|34=684|52=20120529-06:41:36.557|11=528-147|40=2|54=1|21=1|55=600036|1=A123456789|109=12345678|207=XSHG|38=1200|44=12.4500|10=167|685       :8=FIX.4.2|9=0142|35=D|49=test|56=cyh|34=685|52=20120529-06:41:36.557|11=528-148|40=2|54=1|21=1|55=600036|1=A123456789|109=12345678|207=XSHG|38=1200|44=12.4500|10=169|686       :8=FIX.4.2|9=0142|35=D|49=test|56=cyh|34=686|52=20120529-06:41:36.557|11=528-149|40=2|54=1|21=1|55=600036|1=A123456789|109=12345678|207=XSHG|38=1200|44=12.4500|10=171|687       :8=FIX.4.2|9=0142|35=D|49=test|56=cyh|34=687|52=20120529-06:41:36.557|11=528-150|40=2|54=1|21=1|55=600036|1=A123456789|109=12345678|207=XSHG|38=1200|44=12.4500|10=164|688       :8=FIX.4.2|9=0142|35=D|49=test|56=cyh|34=688|52=20120529-06:41:36.557|11=528-151|40=2|54=1|21=1|55=600036|1=A123456789|109=12345678|207=XSHG|38=1200|44=12.4500|10=166|689       :8=FIX.4.2|9=0142|35=D|49=test|56=cyh|34=689|52=20120529-06:41:36.557|11=528-152|40=2|54=1|21=1|55=600036|1=A123456789|109=12345678|207=XSHG|38=1200|44=12.4500|10=168|690       :8=FIX.4.2|9=0142|35=D|49=test|56=cyh|34=690|52=20120529-06:41:36.567|11=528-153|40=2|54=1|21=1|55=600036|1=A123456789|109=12345678|207=XSHG|38=1200|44=12.4500|10=162|691       :8=FIX.4.2|9=0142|35=D|49=test|56=cyh|34=691|52=20120529-06:41:36.567|11=528-154|40=2|54=1|21=1|55=600036|1=A123456789|109=12345678|207=XSHG|38=1200|44=12.4500|10=164|692       :8=FIX.4.2|9=0142|35=D|49=test|56=cyh|34=692|52=20120529-06:41:36.567|11=528-155|40=2|54=1|21=1|55=600036|1=A123456789|109=12345678|207=XSHG|38=1200|44=12.4500|10=166|693       :8=FIX.4.2|9=0142|35=D|49=test|56=cyh|34=693|52=20120529-06:41:36.567|11=528-156|40=2|54=1|21=1|55=600036|1=A123456789|109=12345678|207=XSHG|38=1200|44=12.4500|10=168|694       :8=FIX.4.2|9=0142|35=D|49=test|56=cyh|34=694|52=20120529-06:41:36.567|11=528-157|40=2|54=1|21=1|55=600036|1=A123456789|109=12345678|207=XSHG|38=1200|44=12.4500|10=170|695       :8=FIX.4.2|9=0142|35=D|49=test|56=cyh|34=695|52=20120529-06:41:36.567|11=528-158|40=2|54=1|21=1|55=600036|1=A123456789|109=12345678|207=XSHG|38=1200|44=12.4500|10=172|696       :8=FIX.4.2|9=0142|35=D|49=test|56=cyh|34=696|52=20120529-06:41:36.567|11=528-159|40=2|54=1|21=1|55=600036|1=A123456789|109=12345678|207=XSHG|38=1200|44=12.4500|10=174|697       :8=FIX.4.2|9=0142|35=D|49=test|56=cyh|34=697|52=20120529-06:41:36.567|11=528-160|40=2|54=1|21=1|55=600036|1=A123456789|109=12345678|207=XSHG|38=1200|44=12.4500|10=167|698       :8=FIX.4.2|9=0142|35=D|49=test|56=cyh|34=698|52=20120529-06:41:36.567|11=528-161|40=2|54=1|21=1|55=600036|1=A123456789|109=12345678|207=XSHG|38=1200|44=12.4500|10=169|699       :8=FIX.4.2|9=0142|35=D|49=test|56=cyh|34=699|52=20120529-06:41:36.567|11=528-162|40=2|54=1|21=1|55=600036|1=A123456789|109=12345678|207=XSHG|38=1200|44=12.4500|10=171|700       :8=FIX.4.2|9=0142|35=D|49=test|56=cyh|34=700|52=20120529-06:41:36.567|11=528-163|40=2|54=1|21=1|55=600036|1=A123456789|109=12345678|207=XSHG|38=1200|44=12.4500|10=155|701       :8=FIX.4.2|9=0142|35=D|49=test|56=cyh|34=701|52=20120529-06:41:36.567|11=528-164|40=2|54=1|21=1|55=600036|1=A123456789|109=12345678|207=XSHG|38=1200|44=12.4500|10=157|702       :8=FIX.4.2|9=0142|35=D|49=test|56=cyh|34=702|52=20120529-06:41:36.567|11=528-165|40=2|54=1|21=1|55=600036|1=A123456789|109=12345678|207=XSHG|38=1200|44=12.4500|10=159|703       :8=FIX.4.2|9=0142|35=D|49=test|56=cyh|34=703|52=20120529-06:41:36.567|11=528-166|40=2|54=1|21=1|55=600036|1=A123456789|109=12345678|207=XSHG|38=1200|44=12.4500|10=161|704       :8=FIX.4.2|9=0142|35=D|49=test|56=cyh|34=704|52=20120529-06:41:36.567|11=528-167|40=2|54=1|21=1|55=600036|1=A123456789|109=12345678|207=XSHG|38=1200|44=12.4500|10=163|705       :8=FIX.4.2|9=0142|35=D|49=test|56=cyh|34=705|52=20120529-06:41:36.577|11=528-168|40=2|54=1|21=1|55=600036|1=A123456789|109=12345678|207=XSHG|38=1200|44=12.4500|10=166|706       :8=FIX.4.2|9=0142|35=D|49=test|56=cyh|34=706|52=20120529-06:41:36.577|11=528-169|40=2|54=1|21=1|55=600036|1=A123456789|109=12345678|207=XSHG|38=1200|44=12.4500|10=168|707       :8=FIX.4.2|9=0142|35=D|49=test|56=cyh|34=707|52=20120529-06:41:36.577|11=528-170|40=2|54=1|21=1|55=600036|1=A123456789|109=12345678|207=XSHG|38=1200|44=12.4500|10=161|708       :8=FIX.4.2|9=0142|35=D|49=test|56=cyh|34=708|52=20120529-06:41:36.577|11=528-171|40=2|54=1|21=1|55=600036|1=A123456789|109=12345678|207=XSHG|38=1200|44=12.4500|10=163|709       :8=FIX.4.2|9=0142|35=D|49=test|56=cyh|34=709|52=20120529-06:41:36.577|11=528-172|40=2|54=1|21=1|55=600036|1=A123456789|109=12345678|207=XSHG|38=1200|44=12.4500|10=165|710       :8=FIX.4.2|9=0142|35=D|49=test|56=cyh|34=710|52=20120529-06:41:36.577|11=528-173|40=2|54=1|21=1|55=600036|1=A123456789|109=12345678|207=XSHG|38=1200|44=12.4500|10=158|711       :8=FIX.4.2|9=0142|35=D|49=test|56=cyh|34=711|52=20120529-06:41:36.577|11=528-174|40=2|54=1|21=1|55=600036|1=A123456789|109=12345678|207=XSHG|38=1200|44=12.4500|10=160|712       :8=FIX.4.2|9=0142|35=D|49=test|56=cyh|34=712|52=20120529-06:41:36.577|11=528-175|40=2|54=1|21=1|55=600036|1=A123456789|109=12345678|207=XSHG|38=1200|44=12.4500|10=162|713       :8=FIX.4.2|9=0142|35=D|49=test|56=cyh|34=713|52=20120529-06:41:36.577|11=528-176|40=2|54=1|21=1|55=600036|1=A123456789|109=12345678|207=XSHG|38=1200|44=12.4500|10=164|714       :8=FIX.4.2|9=0142|35=D|49=test|56=cyh|34=714|52=20120529-06:41:36.577|11=528-177|40=2|54=1|21=1|55=600036|1=A123456789|109=12345678|207=XSHG|38=1200|44=12.4500|10=166|715       :8=FIX.4.2|9=0142|35=D|49=test|56=cyh|34=715|52=20120529-06:41:36.577|11=528-178|40=2|54=1|21=1|55=600036|1=A123456789|109=12345678|207=XSHG|38=1200|44=12.4500|10=168|716       :8=FIX.4.2|9=0142|35=D|49=test|56=cyh|34=716|52=20120529-06:41:36.577|11=528-179|40=2|54=1|21=1|55=600036|1=A123456789|109=12345678|207=XSHG|38=1200|44=12.4500|10=170|717       :8=FIX.4.2|9=0142|35=D|49=test|56=cyh|34=717|52=20120529-06:41:36.577|11=528-180|40=2|54=1|21=1|55=600036|1=A123456789|109=12345678|207=XSHG|38=1200|44=12.4500|10=163|718       :8=FIX.4.2|9=0142|35=D|49=test|56=cyh|34=718|52=20120529-06:41:36.577|11=528-181|40=2|54=1|21=1|55=600036|1=A123456789|109=12345678|207=XSHG|38=1200|44=12.4500|10=165|719       :8=FIX.4.2|9=0142|35=D|49=test|56=cyh|34=719|52=20120529-06:41:36.587|11=528-182|40=2|54=1|21=1|55=600036|1=A123456789|109=12345678|207=XSHG|38=1200|44=12.4500|10=168|720       :8=FIX.4.2|9=0142|35=D|49=test|56=cyh|34=720|52=20120529-06:41:36.587|11=528-183|40=2|54=1|21=1|55=600036|1=A123456789|109=12345678|207=XSHG|38=1200|44=12.4500|10=161|721       :8=FIX.4.2|9=0142|35=D|49=test|56=cyh|34=721|52=20120529-06:41:36.587|11=528-184|40=2|54=1|21=1|55=600036|1=A123456789|109=12345678|207=XSHG|38=1200|44=12.4500|10=163|722       :8=FIX.4.2|9=0142|35=D|49=test|56=cyh|34=722|52=20120529-06:41:36.587|11=528-185|40=2|54=1|21=1|55=600036|1=A123456789|109=12345678|207=XSHG|38=1200|44=12.4500|10=165|723       :8=FIX.4.2|9=0142|35=D|49=test|56=cyh|34=723|52=20120529-06:41:36.587|11=528-186|40=2|54=1|21=1|55=600036|1=A123456789|109=12345678|207=XSHG|38=1200|44=12.4500|10=167|724       :8=FIX.4.2|9=0142|35=D|49=test|56=cyh|34=724|52=20120529-06:41:36.587|11=528-187|40=2|54=1|21=1|55=600036|1=A123456789|109=12345678|207=XSHG|38=1200|44=12.4500|10=169|725       :8=FIX.4.2|9=0142|35=D|49=test|56=cyh|34=725|52=20120529-06:41:36.587|11=528-188|40=2|54=1|21=1|55=600036|1=A123456789|109=12345678|207=XSHG|38=1200|44=12.4500|10=171|726       :8=FIX.4.2|9=0142|35=D|49=test|56=cyh|34=726|52=20120529-06:41:36.587|11=528-189|40=2|54=1|21=1|55=600036|1=A123456789|109=12345678|207=XSHG|38=1200|44=12.4500|10=173|727       :8=FIX.4.2|9=0142|35=D|49=test|56=cyh|34=727|52=20120529-06:41:36.587|11=528-190|40=2|54=1|21=1|55=600036|1=A123456789|109=12345678|207=XSHG|38=1200|44=12.4500|10=166|728       :8=FIX.4.2|9=0142|35=D|49=test|56=cyh|34=728|52=20120529-06:41:36.587|11=528-191|40=2|54=1|21=1|55=600036|1=A123456789|109=12345678|207=XSHG|38=1200|44=12.4500|10=168|729       :8=FIX.4.2|9=0142|35=D|49=test|56=cyh|34=729|52=20120529-06:41:36.587|11=528-192|40=2|54=1|21=1|55=600036|1=A123456789|109=12345678|207=XSHG|38=1200|44=12.4500|10=170|730       :8=FIX.4.2|9=0142|35=D|49=test|56=cyh|34=730|52=20120529-06:41:36.587|11=528-193|40=2|54=1|21=1|55=600036|1=A123456789|109=12345678|207=XSHG|38=1200|44=12.4500|10=163|731       :8=FIX.4.2|9=0142|35=D|49=test|56=cyh|34=731|52=20120529-06:41:36.587|11=528-194|40=2|54=1|21=1|55=600036|1=A123456789|109=12345678|207=XSHG|38=1200|44=12.4500|10=165|732       :8=FIX.4.2|9=0142|35=D|49=test|56=cyh|34=732|52=20120529-06:41:36.587|11=528-195|40=2|54=1|21=1|55=600036|1=A123456789|109=12345678|207=XSHG|38=1200|44=12.4500|10=167|733       :8=FIX.4.2|9=0142|35=D|49=test|56=cyh|34=733|52=20120529-06:41:36.587|11=528-196|40=2|54=1|21=1|55=600036|1=A123456789|109=12345678|207=XSHG|38=1200|44=12.4500|10=169|734       :8=FIX.4.2|9=0142|35=D|49=test|56=cyh|34=734|52=20120529-06:41:36.587|11=528-197|40=2|54=1|21=1|55=600036|1=A123456789|109=12345678|207=XSHG|38=1200|44=12.4500|10=171|735       :8=FIX.4.2|9=0142|35=D|49=test|56=cyh|34=735|52=20120529-06:41:36.587|11=528-198|40=2|54=1|21=1|55=600036|1=A123456789|109=12345678|207=XSHG|38=1200|44=12.4500|10=173|736       :8=FIX.4.2|9=0142|35=D|49=test|56=cyh|34=736|52=20120529-06:41:36.597|11=528-199|40=2|54=1|21=1|55=600036|1=A123456789|109=12345678|207=XSHG|38=1200|44=12.4500|10=176|737       :8=FIX.4.2|9=0142|35=D|49=test|56=cyh|34=737|52=20120529-06:41:36.597|11=528-200|40=2|54=1|21=1|55=600036|1=A123456789|109=12345678|207=XSHG|38=1200|44=12.4500|10=160|738       :8=FIX.4.2|9=0142|35=D|49=test|56=cyh|34=738|52=20120529-06:41:36.597|11=528-201|40=2|54=1|21=1|55=600036|1=A123456789|109=12345678|207=XSHG|38=1200|44=12.4500|10=162|739       :8=FIX.4.2|9=0142|35=D|49=test|56=cyh|34=739|52=20120529-06:41:36.597|11=528-202|40=2|54=1|21=1|55=600036|1=A123456789|109=12345678|207=XSHG|38=1200|44=12.4500|10=164|740       :8=FIX.4.2|9=0142|35=D|49=test|56=cyh|34=740|52=20120529-06:41:36.597|11=528-203|40=2|54=1|21=1|55=600036|1=A123456789|109=12345678|207=XSHG|38=1200|44=12.4500|10=157|741       :8=FIX.4.2|9=0142|35=D|49=test|56=cyh|34=741|52=20120529-06:41:36.597|11=528-204|40=2|54=1|21=1|55=600036|1=A123456789|109=12345678|207=XSHG|38=1200|44=12.4500|10=159|742       :8=FIX.4.2|9=0142|35=D|49=test|56=cyh|34=742|52=20120529-06:41:36.597|11=528-205|40=2|54=1|21=1|55=600036|1=A123456789|109=12345678|207=XSHG|38=1200|44=12.4500|10=161|743       :8=FIX.4.2|9=0142|35=D|49=test|56=cyh|34=743|52=20120529-06:41:36.597|11=528-206|40=2|54=1|21=1|55=600036|1=A123456789|109=12345678|207=XSHG|38=1200|44=12.4500|10=163|744       :8=FIX.4.2|9=0142|35=D|49=test|56=cyh|34=744|52=20120529-06:41:36.597|11=528-207|40=2|54=1|21=1|55=600036|1=A123456789|109=12345678|207=XSHG|38=1200|44=12.4500|10=165|745       :8=FIX.4.2|9=0142|35=D|49=test|56=cyh|34=745|52=20120529-06:41:36.597|11=528-208|40=2|54=1|21=1|55=600036|1=A123456789|109=12345678|207=XSHG|38=1200|44=12.4500|10=167|746       :8=FIX.4.2|9=0142|35=D|49=test|56=cyh|34=746|52=20120529-06:41:36.597|11=528-209|40=2|54=1|21=1|55=600036|1=A123456789|109=12345678|207=XSHG|38=1200|44=12.4500|10=169|747       :8=FIX.4.2|9=0142|35=D|49=test|56=cyh|34=747|52=20120529-06:41:36.597|11=528-210|40=2|54=1|21=1|55=600036|1=A123456789|109=12345678|207=XSHG|38=1200|44=12.4500|10=162|748       :8=FIX.4.2|9=0142|35=D|49=test|56=cyh|34=748|52=20120529-06:41:36.597|11=528-211|40=2|54=1|21=1|55=600036|1=A123456789|109=12345678|207=XSHG|38=1200|44=12.4500|10=164|749       :8=FIX.4.2|9=0142|35=D|49=test|56=cyh|34=749|52=20120529-06:41:36.597|11=528-212|40=2|54=1|21=1|55=600036|1=A123456789|109=12345678|207=XSHG|38=1200|44=12.4500|10=166|750       :8=FIX.4.2|9=0142|35=D|49=test|56=cyh|34=750|52=20120529-06:41:36.607|11=528-213|40=2|54=1|21=1|55=600036|1=A123456789|109=12345678|207=XSHG|38=1200|44=12.4500|10=151|751       :8=FIX.4.2|9=0142|35=D|49=test|56=cyh|34=751|52=20120529-06:41:36.607|11=528-214|40=2|54=1|21=1|55=600036|1=A123456789|109=12345678|207=XSHG|38=1200|44=12.4500|10=153|752       :8=FIX.4.2|9=0142|35=D|49=test|56=cyh|34=752|52=20120529-06:41:36.607|11=528-215|40=2|54=1|21=1|55=600036|1=A123456789|109=12345678|207=XSHG|38=1200|44=12.4500|10=155|753       :8=FIX.4.2|9=0142|35=D|49=test|56=cyh|34=753|52=20120529-06:41:36.607|11=528-216|40=2|54=1|21=1|55=600036|1=A123456789|109=12345678|207=XSHG|38=1200|44=12.4500|10=157|754       :8=FIX.4.2|9=0142|35=D|49=test|56=cyh|34=754|52=20120529-06:41:36.607|11=528-217|40=2|54=1|21=1|55=600036|1=A123456789|109=12345678|207=XSHG|38=1200|44=12.4500|10=159|755       :8=FIX.4.2|9=0142|35=D|49=test|56=cyh|34=755|52=20120529-06:41:36.607|11=528-218|40=2|54=1|21=1|55=600036|1=A123456789|109=12345678|207=XSHG|38=1200|44=12.4500|10=161|756       :8=FIX.4.2|9=0142|35=D|49=test|56=cyh|34=756|52=20120529-06:41:36.607|11=528-219|40=2|54=1|21=1|55=600036|1=A123456789|109=12345678|207=XSHG|38=1200|44=12.4500|10=163|757       :8=FIX.4.2|9=0142|35=D|49=test|56=cyh|34=757|52=20120529-06:41:36.607|11=528-220|40=2|54=1|21=1|55=600036|1=A123456789|109=12345678|207=XSHG|38=1200|44=12.4500|10=156|758       :8=FIX.4.2|9=0142|35=D|49=test|56=cyh|34=758|52=20120529-06:41:36.607|11=528-221|40=2|54=1|21=1|55=600036|1=A123456789|109=12345678|207=XSHG|38=1200|44=12.4500|10=158|759       :8=FIX.4.2|9=0142|35=D|49=test|56=cyh|34=759|52=20120529-06:41:36.607|11=528-222|40=2|54=1|21=1|55=600036|1=A123456789|109=12345678|207=XSHG|38=1200|44=12.4500|10=160|760       :8=FIX.4.2|9=0142|35=D|49=test|56=cyh|34=760|52=20120529-06:41:36.617|11=528-223|40=2|54=1|21=1|55=600036|1=A123456789|109=12345678|207=XSHG|38=1200|44=12.4500|10=154|761       :8=FIX.4.2|9=0142|35=D|49=test|56=cyh|34=761|52=20120529-06:41:36.617|11=528-224|40=2|54=1|21=1|55=600036|1=A123456789|109=12345678|207=XSHG|38=1200|44=12.4500|10=156|762       :8=FIX.4.2|9=0142|35=D|49=test|56=cyh|34=762|52=20120529-06:41:36.617|11=528-225|40=2|54=1|21=1|55=600036|1=A123456789|109=12345678|207=XSHG|38=1200|44=12.4500|10=158|763       :8=FIX.4.2|9=0142|35=D|49=test|56=cyh|34=763|52=20120529-06:41:36.617|11=528-226|40=2|54=1|21=1|55=600036|1=A123456789|109=12345678|207=XSHG|38=1200|44=12.4500|10=160|764       :8=FIX.4.2|9=0142|35=D|49=test|56=cyh|34=764|52=20120529-06:41:36.617|11=528-227|40=2|54=1|21=1|55=600036|1=A123456789|109=12345678|207=XSHG|38=1200|44=12.4500|10=162|765       :8=FIX.4.2|9=0142|35=D|49=test|56=cyh|34=765|52=20120529-06:41:36.617|11=528-228|40=2|54=1|21=1|55=600036|1=A123456789|109=12345678|207=XSHG|38=1200|44=12.4500|10=164|